:100000000C9434000C943E000C943E000C943E0082
:100010000C943E000C943E000C943E000C943E0068
:100020000C943E000C943E000C943E000C943E0058
:100030000C943E000C943E000C943E000C943E0048
:100040000C943E000C943E000C943E000C943E0038
:100050000C943E000C943E000C943E000C943E0028
:100060000C943E000C943E0011241FBECFEFD8E04C
:10007000DEBFCDBF0E94E0000C940F030C94000083
:10008000DF93CF93CDB7DEB728970FB6F894DEBFD6
:100090000FBECDBFE22F2983F32F3A83242F4B834A
:1000A0005C836D837E838F8398878D819E814F8152
:1000B0005885622FE33019F48093B30006C0E13015
:1000C00021F49093890080938800452B99F445B1E1
:1000D00021E030E0C90102C0880F991FFA95E2F7CC
:1000E0008095842385B985B102C0220F331F6A959C
:1000F000E2F712C045B121E030E0C90102C0880F2B
:10010000991F6A95E2F78095842385B985B102C06D
:10011000220F331FFA95E2F7822B85B928960FB686
:10012000F894DEBF0FBECDBFCF91DF910895E0EB15
:10013000F0E0808180688083808183608083E0E854
:10014000F0E0808180688083808183608083E1EB40
:10015000F0E0808182608083E1E8F0E0808182606D
:1001600080830895ECE7F0E0808180648083EAE793
:10017000F0E0808187688083089590917C008F7083
:10018000907F892B80937C0080917A00806480939B
:100190007A0080917A0086FDFCCF20917800309122
:1001A0007900C90108950F931F938C01FC01808190
:1001B0000E94BD00F801928381831F910F910895E1
:1001C0002F923F924F925F926F927F928F929F9267
:1001D000AF92BF92CF92DF92EF92FF920F931F9355
:1001E000DF93CF93CDB7DEB769970FB6F894DEBF34
:1001F0000FBECDBF8FE384B917B80E9497008091DE
:100200007C00806480937C0080917A008768809372
:100210007A0083E08A871B8602E00C871F861E8691
:10022000198A188A23E030E042E05D856E857F857B
:10023000888999890E94400011E01A8B85E08C8B97
:1002400084E08B8B1F8A1E8A198E188E21E034E081
:1002500045E05D896E897F89888D998D0E94400077
:1002600009831C831F82EE24FF241E010894211C95
:10027000311C64E0662E712C6C0E7D1E57E0452EFD
:10028000512C4C0E5D1E44EFA42E41E0B42E0FEF16
:1002900013E030E2C32E33E0D32E21E0822E912CE6
:1002A000C1010E94D300C3010E94D300C2010E9479
:1002B000D3002A813B8124363105D8F5888599857C
:1002C00084369105B0F58D819E818436910588F53F
:1002D00081E0E816F10431F4DF86CE86602F1F8BB3
:1002E0000E8B09C082E0E816F104E9F41F870E873F
:1002F0006C2DDF8ACE8A198E188E2A893B894C890B
:100300005D897F89888D998D0E944000198A188A9D
:100310002A853B854C855D856E857F858889998991
:100320000E944000BDCFBF86AE866A2DBF8AAE8ACE
:10033000E2CF2536310520F18885998585369105EE
:10034000F8F08D819E8184369105D0F41F870E8749
:10035000602F1F8B0E8B198E188E2A893B894C8932
:100360005D897F89888D998D0E944000998A888A4D
:100370002A853B854C855D856E857F85882DCFCF11
:100380008D819E818536910500F124363105E8F492
:100390008885998584369105C0F4602F1F8B0E8B5C
:1003A000198E188E2A893B894C895D897F89888DB1
:1003B000998D0E944000602F1F870E87198A188A26
:1003C0002A853B854C855D85A8CF888599858536AE
:1003D000910500F1602F1F8B0E8B198E188E2A89C4
:1003E0003B894C895D897F89888D998D0E94400069
:1003F0001F861E86198A188A2A853B854C855D854D
:100400006E857F85888999890E94400091E0E92E58
:10041000F12C46CF2536310508F442CF602F1F87D7
:100420000E87198A188A2A853B854C855D857F85CC
:10043000888999890E9440001F8A1E8A198E188E09
:100440002A893B894C895D896E897F89888D998D40
:100450000E94400082E0E82EF12C22CFAF92BF92A2
:10046000CF92DF92EF92FF920F931F93DF93CF9380
:10047000CDB7DEB760970FB6F894DEBF0FBECDBF25
:1004800029833A834B835C83A986BA86CB86DC8634
:10049000ED86FE8618861F8281E090E0988B8F871C
:1004A0000FEF13E0602F1E830D837E818F8198856F
:1004B0000E944000602F1E870D8729853A854B8555
:1004C0005C857E858F8598890E94400080E197E257
:1004D00020E931E0F9013197F1F70197D9F7188652
:1004E0001F82188A1F860FEF13E0602F1E830D8373
:1004F00029813A814B815C817E818F8198850E9420
:100500004000602F1E870D8729853A854B855C85C5
:100510007E858F8598890E94400080E197E220E9DE
:1005200031E0F9013197F1F70197D9F781E090E0D7
:1005300098878F83188A1F860FEF13E0602F1E8322
:100540000D8329813A814B815C817E8198850E944F
:100550004000602F1E870D8729853A854B855C8575
:100560007E858F8598890E94400080E197E220E98E
:1005700031E0F9013197F1F70197D9F781E090E087
:1005800098878F83988B8F870FEF13E0602F1E83E0
:100590000D8329813A814B815C817E8198850E94FF
:1005A0004000602F1E870D8729853A854B855C8525
:1005B0007E858F8598890E94400080E29EE420E934
:1005C00031E0F9013197F1F70197D9F71E821D82C9
:1005D00029813A814B815C816D817E818F819885F3
:1005E0000E9440001E861D8629853A854B855C85C4
:1005F0006D857E858F8598890E94400060960FB634
:10060000F894DEBF0FBECDBFCF91DF911F910F9148
:10061000FF90EF90DF90CF90BF90AF900895F89447
:02062000FFCF0A
:00000001FF
